{
  "contractName": "BountyDropper",
  "abi": [
    {
      "constant": true,
      "inputs": [
        {
          "name": "",
          "type": "address"
        }
      ],
      "name": "stakes",
      "outputs": [
        {
          "name": "stakeToTokens",
          "type": "uint256"
        }
      ],
      "payable": false,
      "stateMutability": "view",
      "type": "function"
    },
    {
      "constant": true,
      "inputs": [],
      "name": "owner",
      "outputs": [
        {
          "name": "",
          "type": "address"
        }
      ],
      "payable": false,
      "stateMutability": "view",
      "type": "function"
    },
    {
      "inputs": [],
      "payable": false,
      "stateMutability": "nonpayable",
      "type": "constructor"
    },
    {
      "constant": false,
      "inputs": [
        {
          "name": "_tokenAddress",
          "type": "address"
        },
        {
          "name": "_stake",
          "type": "uint256"
        },
        {
          "name": "_bountyHunterAddress",
          "type": "address"
        }
      ],
      "name": "addStake",
      "outputs": [],
      "payable": false,
      "stateMutability": "nonpayable",
      "type": "function"
    },
    {
      "constant": false,
      "inputs": [
        {
          "name": "_tokenAddress",
          "type": "address"
        },
        {
          "name": "_stakeToTokens",
          "type": "uint256"
        }
      ],
      "name": "distributeStakes",
      "outputs": [],
      "payable": false,
      "stateMutability": "nonpayable",
      "type": "function"
    }
  ],
  "bytecode": "0x608060405234801561001057600080fd5b50336000806101000a81548173ffffffffffffffffffffffffffffffffffffffff021916908373ffffffffffffffffffffffffffffffffffffffff16021790555061075b806100606000396000f300608060405260043610610062576000357c0100000000000000000000000000000000000000000000000000000000900463ffffffff1680630c5dc3161461006757806316934fc4146100b45780638da5cb5b1461010b578063f7b27f8f14610162575b600080fd5b34801561007357600080fd5b506100b2600480360381019080803573ffffffffffffffffffffffffffffffffffffffff169060200190929190803590602001909291905050506101cf565b005b3480156100c057600080fd5b506100f5600480360381019080803573ffffffffffffffffffffffffffffffffffffffff1690602001909291905050506104c0565b6040518082815260200191505060405180910390f35b34801561011757600080fd5b506101206104de565b604051808273ffffffffffffffffffffffffffffffffffffffff1673ffffffffffffffffffffffffffffffffffffffff16815260200191505060405180910390f35b34801561016e57600080fd5b506101cd600480360381019080803573ffffffffffffffffffffffffffffffffffffffff16906020019092919080359060200190929190803573ffffffffffffffffffffffffffffffffffffffff169060200190929190505050610503565b005b6000806000806000809054906101000a900473ffffffffffffffffffffffffffffffffffffffff1673ffffffffffffffffffffffffffffffffffffffff163373ffffffffffffffffffffffffffffffffffffffff1614151561023057600080fd5b85935084600160008873ffffffffffffffffffffffffffffffffffffffff1673ffffffffffffffffffffffffffffffffffffffff16815260200190815260200160002060020181905550600092505b600160008773ffffffffffffffffffffffffffffffffffffffff1673ffffffffffffffffffffffffffffffffffffffff168152602001908152602001600020600001805490508310156104b857600160008773ffffffffffffffffffffffffffffffffffffffff1673ffffffffffffffffffffffffffffffffffffffff1681526020019081526020016000206000018381548110151561031b57fe5b9060005260206000200160009054906101000a900473ffffffffffffffffffffffffffffffffffffffff16915084600160008873ffffffffffffffffffffffffffffffffffffffff1673ffffffffffffffffffffffffffffffffffffffff16815260200190815260200160002060010160008473ffffffffffffffffffffffffffffffffffffffff1673ffffffffffffffffffffffffffffffffffffffff168152602001908152602001600020540290508373ffffffffffffffffffffffffffffffffffffffff1663a9059cbb83836040518363ffffffff167c0100000000000000000000000000000000000000000000000000000000028152600401808373ffffffffffffffffffffffffffffffffffffffff1673ffffffffffffffffffffffffffffffffffffffff16815260200182815260200192505050602060405180830381600087803b15801561046f57600080fd5b505af1158015610483573d6000803e3d6000fd5b505050506040513d602081101561049957600080fd5b810190808051906020019092919050505050828060010193505061027f565b505050505050565b60016020528060005260406000206000915090508060020154905081565b6000809054906101000a900473ffffffffffffffffffffffffffffffffffffffff1681565b6000809054906101000a900473ffffffffffffffffffffffffffffffffffffffff1673ffffffffffffffffffffffffffffffffffffffff163373ffffffffffffffffffffffffffffffffffffffff1614151561055e57600080fd5b6000821415151561056e57600080fd5b6000600160008573ffffffffffffffffffffffffffffffffffffffff1673ffffffffffffffffffffffffffffffffffffffff16815260200190815260200160002060010160008373ffffffffffffffffffffffffffffffffffffffff1673ffffffffffffffffffffffffffffffffffffffff16815260200190815260200160002054141561069d57600160008473ffffffffffffffffffffffffffffffffffffffff1673ffffffffffffffffffffffffffffffffffffffff1681526020019081526020016000206000018190806001815401808255809150509060018203906000526020600020016000909192909190916101000a81548173ffffffffffffffffffffffffffffffffffffffff021916908373ffffffffffffffffffffffffffffffffffffffff160217905550505b60018060008573ffffffffffffffffffffffffffffffffffffffff1673ffffffffffffffffffffffffffffffffffffffff16815260200190815260200160002060010160008373ffffffffffffffffffffffffffffffffffffffff1673ffffffffffffffffffffffffffffffffffffffff168152602001908152602001600020600082825401925050819055505050505600a165627a7a723058206310562145bbe3de00985f7b7db8986e01b1053279ed8403f7b8bd3b144896940029",
  "source": "pragma solidity ^0.4.24;\nimport \"./ERC20Token.sol\";\n\ncontract BountyDropper {\n\n    address public owner;\n\n    struct Stake {\n        address[] hunterList;\n        mapping(address => uint) stakeMap;\n        uint stakeToTokens;\n    }\n    mapping(address => Stake) public stakes;\n\n    modifier onlyOwner() {\n        require(msg.sender == owner);\n        _;\n    }\n\n    constructor() public {\n        owner = msg.sender;\n    }\n\n    function addStake(address _tokenAddress, uint _stake, address _bountyHunterAddress) public onlyOwner {\n        require(_stake != 0);\n        if (stakes[_tokenAddress].stakeMap[_bountyHunterAddress] == 0) {\n            stakes[_tokenAddress].hunterList.push(_bountyHunterAddress);\n        }\n        stakes[_tokenAddress].stakeMap[_bountyHunterAddress] += 1;\n    }\n\n    function distributeStakes(address _tokenAddress, uint _stakeToTokens) public onlyOwner {\n\n        Token token = Token(_tokenAddress);\n\n        stakes[_tokenAddress].stakeToTokens = _stakeToTokens;\n\n        for ( uint i = 0; i < stakes[_tokenAddress].hunterList.length; i++ ) {\n            address _bountyHunter = stakes[_tokenAddress].hunterList[i];\n            uint _tokenAmount = stakes[_tokenAddress].stakeMap[_bountyHunter] * _stakeToTokens;\n            token.transfer(_bountyHunter, _tokenAmount);\n        }\n    }\n\n}\n",
  "sourcePath": "/Users/juanbernardotobar/lacanoa/oilyMushroom/contracts/BountyDropper.sol",
  "compiler": {
    "name": "solc",
    "version": "0.4.24+commit.e67f0147.Emscripten.clang"
  },
  "schemaVersion": "2.0.1",
  "updatedAt": "2018-08-07T14:50:24.681Z"
}